:020000040800F2
:1000000078250120AD010008E31300081310000853
:10001000E113000811030008291600080000000081
:10002000000000000000000000000000D5140008DF
:100030001303000800000000E5130008D7140008AF
:10004000C7010008C7010008C7010008C701000870
:10005000C7010008C7010008C7010008C701000860
:10006000C7010008C7010008C7010008C701000850
:10007000C7010008C7010008C7010008C701000840
:10008000C7010008C7010008C70100080000000000
:10009000000000000000000000000000C701000890
:1000A000C701000885150008C7010008C70100083E
:1000B000C7010008C7010008C7010008C701000800
:1000C000C7010008C7010008C7010008C7010008F0
:1000D000C7010008C7010008C701000800000000B0
:1000E000C7010008C7010008C701000800000000A0
:1000F000000000000000000000000000C701000830
:1001000000000000C7010008C7010008C70100087F
:1001100000000000000000000000000000000000DF
:10012000C7010008C7010008C7010008C70100088F
:10013000C7010008000000000000000000000000EF
:10014000000000000000000000000000C7010008DF
:10015000C7010008C7010008C7010008C70100085F
:10016000C7010008C70100080000000000000000EF
:10017000000000000000000000000000000000007F
:1001800000000000C701000800000000000000009F
:10019000C7010008C7010008DFF80CD000F0A6F87E
:1001A00000480047D106010878250120064880470D
:1001B00006480047FEE7FEE7FEE7FEE7FEE7FEE74C
:1001C000FEE7FEE7FEE7FEE7691500089901000873
:1001D0002DE9F05F0546002092469B46884606467C
:1001E000814640241BE0284641464746224600F00F
:1001F0006CF853465A46C01A914110D3114618461E
:10020000224600F053F82D1A67EB01084F462246AC
:100210000120002100F04AF817EB00094E41201E92
:10022000A4F10104DFDC484631462A464346BDE8D6
:10023000F09FD2B201E000F8012B491EFBD27047BB
:100240000022F6E710B513460A4604461946FFF7A2
:10025000F0FF204610BD421C10F8011B0029FBD105
:10026000801A704710B5002200E0521C835C8C5C41
:10027000A34201D1002BF8D1D8B2E1B2401A10BD8F
:1002800030B504460020034600E05B1C934203D2D5
:10029000E05CCD5C401BF8D030BD034611F8012B6B
:1002A00000F8012B002AF9D118467047202A04DBF8
:1002B000203A00FA02F1002070479140C2F1200379
:1002C00020FA03F3194390407047202A04DB203AB8
:1002D00021FA02F00021704721FA02F3D040C2F166
:1002E000200291400843194670470000064C074D14
:1002F00006E0E06840F0010394E8070098471034F6
:10030000AC42F6D3FFF74CFF346D0108546D010881
:10031000FEE7704772B6054D4FF4FA74204600F0C0
:100320001DF80121284600F0F5F8F7E7000002402B
:10033000C1F30743CAB2C1F30721890830B1D80815
:10034000C00240EA411040EAD2007047D008C00223
:1003500040EA411040EAD3007047000070B50446FF
:1003600000F0E4F80546601C02D00448007804441C
:1003700000F0DCF8401BA042FAD370BD0000002062
:100380002DE9F84F00224FF0010803254FF00F0E22
:100390000B6808FA02F42340A34271D14E68012E83
:1003A00005D0022E03D0112E01D0122E15D1866851
:1003B000570005FA07FC26EA0C06D1F80CC00CFA27
:1003C00007FC4CEA060CC0F808C04668A6430C7946
:1003D000C4F30014944034434460C668570005FADF
:1003E00007FC8C6826EA0C06BC403443C4604C68A9
:1003F000022C01D0122C13D1D40800EB8404A346A4
:10040000D4F8209054074FEAD46A0EFA0AF629EA83
:1004100006090E6906FA0AF646EA0906CBF82060D4
:1004200004680E7924EA0C0406F00306BE40264355
:1004300006604C68E40056D52E4C266846F480468B
:100440002660246822F0030604F4804400942A4CB9
:100450003444A446D4F808489607370F0EFA07F636
:10046000B443264EB04201D1002615E0244EB042DE
:1004700001D1012610E0234EB04202D102260BE04A
:1004800031E0214EB04201D1032605E01F4EB042BB
:1004900001D1042600E00726BE402643CCF80868B8
:1004A0001B4E34684F689C43FF0300D51C433460E7
:1004B000174E361D34684F689C43BF0300D51C435C
:1004C0003460134E083634684F689C43FF0200D5F1
:1004D0001C4334600E4E0C3634684F689C43BF0298
:1004E00000D51C433460521C102AFFF451AFBDE804
:1004F000F88F000044380240003001400000024004
:100500000004024000080240000C024000100240BB
:10051000003C0140426931EA020200D109048161D4
:1005200070470AB1816170470904FBE701488068A0
:1005300070470000000000200248816802781144E2
:1005400081607047000000200B4810B5016841F43D
:1005500000710160016841F480610160016841F44B
:1005600080710160032000F071F8002000F006F8AF
:1005700000F024F8002010BD003C024070B50D4D85
:1005800004464FF47A712878B1FBF0F00A49096803
:10059000B1FBF0F000F01AFC48B9102C07D2002291
:1005A0002146501E00F032F800206C6070BD012022
:1005B00070BD0000000000200C0000200B4882B03D
:1005C000016841F480410160006800F480400090BF
:1005D0000648001F016841F080510160006800F08A
:1005E00080500090052002B000F030B8443802403E
:1005F000002809DB00F01F02012191404009800022
:1006000000F1E020C0F8001170470000F0B40E4B7C
:100610001B680C46C3F30223C3F10705042D00D960
:100620000425191D072901D2002300E0DB1E012645
:1006300006FA05F1491E214099409E40761E16405B
:100640003143F0BC00F0F1BF0CED00E0064900F0D2
:10065000070208684FF6FF03184040EA0220034AE9
:1006600010430860704700000CED00E00000FA0540
:100670002DE9F0470E46050065D0DFF81481D8F863
:100680000000F7B200F00F00B04207D288F8007007
:10069000D8F8000000F00F00B04254D128683D4C5B
:1006A000810712D5400703D5206840F4E050206050
:1006B0002878000703D5206840F460402060206857
:1006C000A96820F0F000084320602878C0072DD0EA
:1006D000304968680839012812D0022813D003284D
:1006E00011D00968890700292DDA216821F003015A
:1006F00001432160FFF71AFF814641F2883A0EE07C
:1007000009688903EFE709688901ECE7FFF70EFF45
:10071000A0EB0901514502D90320BDE8F08720680C
:10072000696800F00C00B0EB810FEFD1D8F8001031
:10073000404601F00F01B14207D90770006800F090
:100740000F00B04201D00120E7E72878400705D527
:100750002068E96820F4E05008432060287800070A
:1007600006D52068296920F4604040EAC100206075
:1007700000F018F82168084AC1F30311515CC84021
:100780000649086006480068FFF7F8FE0020C4E745
:10079000003C0240083802407C2C01080C0000207C
:1007A00004000020154810B5006810F00C02144831
:1007B00013D04110042A0FD0082A0ED10F4C241F49
:1007C0002268236802F03F025B0207D52068C0F36D
:1007D0008810A0FB010106E0084610BD2168C1F3A6
:1007E0008811A1FB00010023FFF7F2FC2168C1F38F
:1007F0000141491C4900B0FBF1F010BD083802402E
:100800000024F4002DE9F84F04006ED02078DFF8C2
:100810003C93C007A9F104054AD009F1040001681E
:10082000C1F38101012908D00068C0F381000228CA
:100830000AD1D9F80000400206D52868800337D5D0
:1008400060680028E1D033E06068B0F5803F10D0E8
:10085000B0F5A02F286810D020F4803028602868D8
:1008600020F4802028606068A8B1FFF75FFE06468C
:100870000DE0286840F48030F4E740F480202860E0
:10088000F7E700BFFFF752FE801B642873D8286883
:100890008003F7D50CE0FFF749FE064605E000BFF0
:1008A000FFF744FE801B6428F0D828688003F7D443
:1008B0002078DFF89C8280074FF0000A3ED5A348DD
:1008C000001D016811F00C0F08D00068C0F3810012
:1008D00002280BD1D9F80000400207D4286880070D
:1008E00016D5E068012800D112E02BE1E068B8B12C
:1008F0000120C8F80000FFF719FE064605E000BF1A
:10090000FFF714FE801B0228C0D828688007F7D59F
:100910002868216920F0F80040EAC10028600DE055
:10092000C8F800A0FFF702FE064604E0FFF7FEFD50
:10093000801B02281FD828688007F7D4207800077A
:1009400022D5824E83486169703671B10121016000
:10095000FFF7ECFD074604E0FFF7E8FDC01B0228A7
:1009600009D830688007F7D50EE0C0F800A0FFF77F
:10097000DDFD074605E082E0FFF7D8FDC01B022839
:100980007DD830688007F7D42078400768D5DFF835
:10099000BCB100270BF13C0BDBF80000C0000BD40E
:1009A000DBF8001041F08051CBF80010DBF80000BC
:1009B000012700F080500090674E3068C00510D4C9
:1009C000306840F480703060FFF7B0FD009005E0C3
:1009D000FFF7ACFD0099401A022850D83068C005D6
:1009E000F6D55A4EA0686C3601280FD0052830681D
:1009F00010D020F001003060306820F0040030603A
:100A0000A068B8B1FFF792FD00900FE0306840F0A9
:100A10000100F4E740F004003060F7E7FFF786FDDF
:100A20000099411A41F28830814266D830688007C7
:100A3000F4D50EE0FFF77AFD009007E0FFF776FDB2
:100A40000099411A41F28830814256D830688007B7
:100A5000F4D42FB1DBF8001021F08051CBF8001056
:100A6000A069C8B33949091D0968C1F38101022988
:100A70004AD00228504607D0C8F8600000E03CE0A9
:100A8000FFF754FD04463BE04746C8F86000FFF717
:100A90004DFD064605E000BFFFF748FD801B02281C
:100AA0002BD828688001F7D4D4E907010843A16A4C
:100AB0002A4A490802EB0141626A41EA821108436D
:100AC00094F82C1040EA0161C9F800100120386642
:100AD000FFF72CFD044606E036E000BFFFF726FDD9
:100AE000001B022809D828688001F7D52CE000BF38
:100AF000FFF71CFD001B022802D90320BDE8F88F78
:100B000028688001F4D41FE00128F7D0D9F800004C
:100B1000E26900F48001914214D1226A00F03F01A1
:100B200091420FD147F6C071626A0140914209D1EA
:100B3000A26A00F44031914204D1E16A00F0706091
:100B4000884201D00120D9E70020D7E704380240CD
:100B500000004742800E4742007000400000FFFF47
:100B600070B5040005D00025A56294F8510010B1BD
:100B700006E0012070BD84F85050204600F030F8A7
:100B8000022084F851002068016821F040010160D2
:100B9000D4E901010843D4E9031211430843616910
:100BA0000843218B01F400710843E1690843216A7D
:100BB0000843A16A084321680860A069042101EA8A
:100BC0001040616A0843216848602068C16921F4C7
:100BD0000061C1616565012084F85100002070BD8D
:100BE000F0B587B0044614216846FFF729FB1C497D
:100BF0002068884232D11B480025016841F48011E9
:100C00000160006800F480100590164814380168EF
:100C100041F002010160016801F0020105910168E3
:100C200041F001010160006803240226CDE900467D
:100C300000F001000627CDE90470CDE902546946B1
:100C40000948FFF79DFB4FF4A050CDE90006CDE920
:100C50000254694604970548FFF792FB07B0F0BDC0
:100C600000500140443802400004024000000240AD
:100C70002DE9F84F044690F8500000271D4616460F
:100C8000894601280DD04FF0010B84F850B0FFF7D2
:100C90004DFC804694F85100BA46012804D0022742
:100CA0008EE00220BDE8F88FB9F1000F7DD0002E54
:100CB0007BD0032084F85100C4F854A0C4F83090CD
:100CC000A686E686C4F838A0A4F83CA0A4F83EA006
:100CD000C4F844A0C4F840A0A068B0F5004F04D107
:100CE0002068016841F4804101602068016849067C
:100CF00003D4016841F040010160E068B0F5006F85
:100D0000606803D030B3012E24D040E008B1012E3A
:100D10001CD1206B21680088C86006E020688168CB
:100D2000890709D5216B0988C160206B801C20636D
:100D3000E08E401EE08609E0FFF7F8FBA0EB08001C
:100D4000A84202D3681C01D031E07DB3E08E0028B8
:100D5000E4D11FE0206B21680078087306E020686A
:100D60008168890709D5216B09780173206B401CC4
:100D70002063E08E401EE08609E0FFF7D7FBA0EB82
:100D80000800A84202D3681C01D010E075B1E08EC3
:100D90000028E4D142462946204600F025FB08B150
:100DA00020206065A06820B107E008E0FFE7032786
:100DB00006E02068C16880680090606D00B101277E
:100DC00084F851B084F850A038466BE710B5401E47
:100DD000B0F1807F01D3012010BD4FF0E0246061AD
:100DE0000F21601700F021FC0020A0610720206186
:100DF000002010BD7047704710B5040003D094F870
:100E00003D0010B107E0012010BD002084F83C0037
:100E1000204600F00DF8022084F83D00211D2068D6
:100E200000F0B6FB012084F83D00002010BD00005A
:100E300008B500680B49884212D10B48016841F49B
:100E4000003101600068012200F40030009011467A
:100E50001920FFF7DBFBBDE808401920FFF7C8BBEE
:100E600008BD000000440140443802400168CA68DF
:100E700042F00102CA600068816801F0070106299A
:100E800003D0016841F00101016000207047704704
:100E900070B50446006801694FF00005C943890731
:100EA00015D4C168C943890711D4E91E0161012025
:100EB0002077206880698007204602D0FFF7E7FF8F
:100EC00004E000F098F8204600F096F825772068B6
:100ED0000169C943490717D4C168C943490713D4F5
:100EE0006FF004010161022020772068806910F40E
:100EF000407F204602D0FFF7CAFF04E000F07BF8F5
:100F0000204600F079F8257720680169C943090770
:100F100016D4C168C943090712D46FF008010161F2
:100F2000042020772068C0698007204602D0FFF7A0
:100F3000AEFF04E000F05FF8204600F05DF8257792
:100F400020680169C943C90617D4C168C943C906E5
:100F500013D46FF010010161082020772068C06968
:100F600010F4407F204602D0FFF791FF04E000F02C
:100F700042F8204600F040F8257720680169C9430F
:100F8000C90708D1C168C943C90704D1891E0161D5
:100F9000204600F033F820680169C943090609D4E6
:100FA000C168C943090605D46FF08001016120467C
:100FB000FFF720FF20680169C943490609D4C168C9
:100FC000C943490605D46FF040010161204600F095
:100FD0001FF820680169C94389060BD4C168C94359
:100FE000890607D46FF0200101612046BDE87040FA
:100FF000FFF701BF70BD704770470000034988428A
:1010000002D101200FF0FEB97047000064010020FA
:101010007047FEE701B5002280210548FFF781FAFD
:101020000023012269460348FFF722FE08BD0000A5
:10103000000002400C0100202DE9F04710F8018B60
:101040000446002528E02078FFF7E4FF60780026BA
:1010500000F0800920F08007A41C05E014F8010BC3
:1010600000F030F8761CF6B2BE42F7D3B9F1000FAB
:1010700010D014F8017BFF2F01D0002608E04FF4B8
:10108000FA70FFF76BF905E00520FFF767F9761DA9
:10109000BE42F9DB6D1CEDB24545D4D3BDE8F08707
:1010A00010B50446012280210548FFF73AFA200ACC
:1010B00000F008F8E0B2BDE8104000F003B800000E
:1010C0000000024001B5012280210548FFF729FAFE
:1010D0000023012269460348FFF7CAFD08BD00004E
:1010E000000002400C01002038B50D46044600F017
:1010F00091F8052C29D2DFE804F003050F1638001B
:101100001F4806E01E486730FFF796FF1C48A230D4
:1011100031E0FFF791FF18E019486730FFF78CFFC7
:101120001748AF3027E016486730FFF785FF1448AF
:10113000AF30FFF781FF1248C930FFF77DFF36203F
:10114000FFF768FFC020FFF7BDFF2920FFF762FF10
:101150002946204600F016F80020A0230121009027
:101160001A46084600F037F838BD05486730FFF7E3
:1011700063FF0348BC30FFF75FFF0148C930C8E791
:101180008C2C010870B504460D463620FFF742FF4F
:1011900065B1012D10D0022D14D0032D1AD1032CCE
:1011A00016D06820BDE87040FFF78CBF032C01D03B
:1011B000C820F7E7C020F5E7032C01D0A820F1E70D
:1011C000A020EFE7032C01D00820EBE70020E9E79F
:1011D0006020E7E770BD2DE9F0410F46811802FB62
:1011E00003F5FA18491E89B20B46521E0146002427
:1011F00092B23846069E00F029F806E031460020FB
:10120000FFF796F8FFF74CFF641CAC42F6D3BDE83D
:10121000F081000070B501220B4DD4022146284612
:10122000FFF77FF99620FFF799F80022214628461C
:10123000FFF777F99620FFF791F821462846BDE899
:1012400070400122FFF76DB9000002402DE9F04126
:1012500004461D4616460F462A20FFF7DBFE384699
:10126000FFF71EFF2846FFF71BFF2B20FFF7D2FEDC
:101270002046FFF715FF3046FFF712FFBDE8F041AB
:101280002C20FFF7C7BE00002DE9F04387B01421E2
:101290006846FEF7D5FF2F480024016841F004019D
:1012A0000160016801F004010591016841F08001CD
:1012B0000160016801F080010591016841F00101C0
:1012C0000160016801F001010591016841F002012E
:1012D00001600068DFF8808000F0020005900122C4
:1012E00007214046FFF71DF94FF4086600223146FA
:1012F0004046FFF716F9DFF864904FF4804700226C
:1013000039464846FFF70DF9781001258DE8310080
:1013100069461348FFF734F807200090CDE90154DF
:10132000694640460394FFF72BF80320CDE90240BD
:10133000CDE9006569464046FFF722F80097CDE900
:101340000154694648460394FFF71AF807B0BDE810
:10135000F0830000303802400000024000040240E8
:1013600000080240104810B50E4901604FF4827128
:10137000416000218160C1604FF480220161C0E9B9
:1013800005121022C0E90721416281620A21C1626F
:10139000FFF7E6FB002803D0BDE81040FEF7BABF18
:1013A00010BD0000005001400C0100200B4810B59A
:1013B000094901600121416000214CF24F32C0E92E
:1013C000021201618161FFF717FD002803D0BDE81B
:1013D0001040FEF79FBF10BD004401406401002093
:1013E000FEE7FEE77047000038B504461248134B8D
:1013F0000068B0FBF3F04FF47A73584300906068D4
:10140000B0F5827F0DD10B4600920022802120464C
:1014100000F016F870B1606D40F0200060650320A8
:1014200038BD009830B1401E009020688068C043ED
:101430000006F6D5002038BD0C00002000366E01F5
:101440002DE9F0411D4617460E460446DDF818808A
:1014500008E0681C06D0FFF769F8A0EB0800A84276
:101460000BD255B12068806836EA000030D00020E9
:10147000B842EED10020BDE8F0812068416821F03B
:10148000E00141606068B0F5827F0BD1A068B0F5E3
:10149000004F02D0B0F5806F04D12068016821F0C0
:1014A00040010160A06AB0F5005F09D120680168C1
:1014B00021F4005101602068016841F4005101608D
:1014C000012084F85100002084F850000320D2E766
:1014D0000120CDE77047FFF72FB8000030B593B07B
:1014E00030216846FEF7ACFE14210CA8FEF7A8FEDA
:1014F0001B480025016841F080510160006800F040
:10150000805011901748016841F440410160006823
:10151000022400F44040119001200090000401904A
:101520008001CDE9064008200890C820CDE90904D3
:1015300004200B906846FFF765F960B90CA90F20ED
:1015400081E83100E002CDE90F0503210CA8FFF787
:101550008FF8002801D0FEF7DDFE13B030BD00008B
:1015600040380240007000400548016841F47001B5
:10157000016003494FF00060803908607047000047
:1015800088ED00E00148FFF783BC00006401002003
:10159000F0B502681D4B1E4C9F031E4D1E4E984217
:1015A00007D0B84205D0A04203D0A84201D0B04233
:1015B00004D122F0700C4A6842EA0C02984210D022
:1015C000B8420ED0A0420CD0A8420AD0B04208D0F7
:1015D000124CA04205D0124CA04202D0114CA042A5
:1015E00003D122F44074CA6822434C6922F080027D
:1015F000224302608A68C2620A688262984201D10C
:101600000969016301214161F0BD00000000014052
:101610000004004000080040000C00400040014071
:101620000044014000480140FEE70907090E002878
:1016300004DB00F1E02080F80014704700F00F0098
:1016400000F1E02080F8141D704702E008C8121F66
:1016500008C1002AFAD170477047002001E001C19B
:10166000121F002AFBD1704710B54021094801F034
:10167000A7F80EF0BDFE084C0023042260601E2176
:1016800006480EF0AFFCA06002F01EFA00202070A9
:1016900010BD0000E002002088000020813B00080F
:1016A0002DE9F04100251C4688460646152A3BD206
:1016B000DFE802F00B1B1D2E3744535C5E676A792E
:1016C000878999A6ABB0B5BACD00304608F0CFFCFB
:1016D0000546404608F0CBFC014605EBD5704010AE
:1016E00001EBD171A0EB6100A1E025800EE0304656
:1016F00008F0BDFC0746404608F0B9FC07EBD7717F
:10170000491000EBD070A1EB60008BE065800BE02E
:10171000304608F0ACFC0746404608F0A8FC381AF2
:1017200080E0258097E06080208831880844208010
:101730006088718808446080BDE8F081304608F018
:1017400096FC0546404608F092FC05EBD571491021
:1017500000EBD070A1EB60007CE0304608F087FC25
:101760000546404608F083FC281A73E025805FE0B8
:10177000304608F07CFC0546404608F078FC281A04
:1017800055E02580084618E0304608F070FC054614
:10179000404608F06CFC05EBD571491000EBD070A9
:1017A000A1EB600007E0304608F061FC05464046CA
:1017B00008F05DFC281A2080404608F02CFC4042CE
:1017C000B1E7258018E0304608F051FC0546404658
:1017D00008F04DFC014605EBD570401001EBD171CE
:1017E000A0EB610007E0304608F041FC05464046AA
:1017F00008F03DFC281A2080304608F00CFC92E7E7
:10180000084608F034FC40420CE0084608F02FFC83
:1018100040420CE0084608F02AFC40421AE03046FC
:1018200008F025FC208071E7304608F020FC20807D
:10183000304608F0F0FB0546404608F0ECFB05EBAF
:10184000D571491000EBD070A1EB60006BE730461A
:1018500008F00DFC2080304608F0DDFB05464046D0
:1018600008F0D9FB281A5EE770B5B1F90030B2F97B
:101870000040A34200DC23460380B1F90250B2F9D4
:101880000240A54200DD2C464480B1F90460B2F963
:101890000450AE4200DA35468580B1F90610B2F93F
:1018A0000620914200DB1146C1800120AB4201DCE1
:1018B0008C4200DD002070BDF8B50D46044616468A
:1018C000B4F90010B5F900200020914212DBB4F900
:1018D0000220B5F902309A420CDBB4F90420B5F9C4
:1018E00004309A4206DCB4F90620B5F906309A4273
:1018F00000DC0120002E33D0ADF800106088ADF878
:10190000020032466946284600F047F8002827D0F2
:10191000A088ADF800006088ADF802003246694644
:10192000284600F03AF800281AD02088ADF80000C8
:10193000E088ADF8020032466946284600F02DF8EE
:1019400000280DD0A088ADF80000E088ADF80200B6
:1019500032466946284600F020F8002800D00120D1
:10196000F8BDB0F90020B1F904309A4213DCB0F9A7
:101970000420B1F900309A420DDBB0F90220B1F930
:1019800006309A4207DCB0F90600B1F9021088422D
:1019900001DB01207047002070472DE9FC4114460F
:1019A0000E46B1F90020B0F9001005468A423ADB34
:1019B000B5F90400824236DCB6F90270B5F90220AE
:1019C000974230DBB5F906309F422CDC002C75DDE8
:1019D000401A9A1A401C521C00B212B200EBD0708E
:1019E00002EBD27240105210904200DB104684424B
:1019F00000DD0446ADF80010288800222044ADF830
:101A000004006888ADF80200688831462044ADF8CB
:101A100006006846FFF7C1FF40B1BDF8040020444E
:101A2000ADF804003FE00020BDE8FC81E88800221A
:101A3000001BADF80200E888ADF8060031466846A4
:101A4000FFF7ABFF28B1BDF804002044ADF8040057
:101A500011E0A8880022001BADF80000A888ADF8AE
:101A6000040031466846FFF798FF50B1BDF800000A
:101A7000001BADF80000BDF80200001BADF802002D
:101A800016E06888ADF80200688800222044ADF8AE
:101A9000060031466846FFF780FF70B1BDF80000D0
:101AA000001BADF80000BDF806002044ADF80600AC
:101AB000314668460DF02CFEB6E7FFE70120B3E79C
:101AC00010B5B1F90040B2F900309C4200DA23466B
:101AD0000380B1F90240B2F902309C4200DA234699
:101AE0004380B1F90440B2F904309C4200DD234642
:101AF0008380B1F90610B2F90620914200DC11464C
:101B0000C18010BD2DE9FF4F87B01D46DDE9147679
:101B1000DDF8589092468B46022E4BD3002F49D0C9
:101B200001F06CFA804608F0C9FC00F110048068EE
:101B300004905A4605A80799FFF796FE002839D069
:101B4000BDF814002188401A01B2ADF81410BDF898
:101B500016006288801AADF81600BDF818002288B9
:101B6000801A00B2ADF81800BDF81A206388D21AA6
:101B7000ADF81A2095B198F80820D2070ED1401A76
:101B8000401C01B2002007E02A5C802A01D9FF2214
:101B900000E000222A54401C8842F5DBD8F81400EB
:101BA000534650B1CDE9006505AA02972046049935
:101BB00006F004FE0BB0BDE8F08FB9F1000F09D0BC
:101BC00001A8009680E8A00205AA2046049906F024
:101BD000E5FBEFE7CDE9006505AA029720460499E9
:101BE00006F062FCE6E72DE9F04F87B01C46DDE920
:101BF0001065DDF848A017468B46022D55D3002E00
:101C000053D00A46014605A8FFF72EFE00284CD007
:101C100001F0F4F9814608F051FC0146BDF81420AA
:101C200030F8103F8968D21A12B2ADF81420BDF80E
:101C30001630B0F802C0A3EB0C03ADF81630BDF8B7
:101C40001830B0F800C0A3EB0C031BB2ADF818308D
:101C5000BDF81AC0B0F80280ACEB080CADF81AC0A1
:101C6000C4B199F808C05FEACC7C13D19A1A521C0F
:101C700013B200220CE014F802C0BCF1800F02D9AC
:101C80004FF0FF0C01E04FF0000C04F802C0521CB2
:101C90009A42F0DBD9F8142052B100970396CDE9AF
:101CA00001545B4605AA0EF06BFF07B0BDE8F08F4C
:101CB000BAF1000F0AD00DF108085B4688E850041D
:101CC000CDE9007505AA0EF069FDEEE700970396D1
:101CD000CDE901545B4605AA0EF0FAFDE5E70000E8
:101CE0002DE9FC5F05460EF083FB504C0190E8683F
:101CF0006060002128460EF0CFFA6068416BA1B108
:101D00000DF0A8FE0DF026FE6068B0F860118905A0
:101D10007DD0A34608F059FC002864D0DBF804000D
:101D20005D46416900295ED104E00021C0F86011E0
:101D3000BDE8FC9F08F0C2FB04460DF085FFA069DA
:101D40000028FCD16868B0F90000800000F046FE71
:101D50008246A16820688946814200D16068804639
:101D6000686808F0BFFB06460024AB462EE00A195F
:101D700092F8402142BB01EBC40131F9402FB1F987
:101D8000025016FB052389889F00891A491C09B255
:101D90008900009110E000BF08EB07015046009A4F
:101DA00000F0E0FE09EB07005146009A00F0DAFE71
:101DB0006D1C07EB86072DB2DBF8040000EBC400B6
:101DC000B0F94600A842E7DA641CA4B2DBF80410BC
:101DD000B1F86021C2F30902A242C8D8BAF10000EA
:101DE00001D000F07FFEDBF804004FF480715C4608
:101DF000403000F0ADFF6068202100F5A07000F0D9
:101E0000A7FF61680020C1F86001019800E007E0C9
:101E10000EF0E8FA0146606883690BB122689847C2
:101E200000F0BAFDBDE8FC5F00F002B8240000201D
:101E300010B5044C6068002803D00BF027FE00208A
:101E4000606010BD380000201821014800F0B8BCC7
:101E5000EC0200202DE9FF4F85B08946129C824696
:101E600013B9B4F5807F7CD04FF00A0893FBF8F7E4
:101E7000784200EB800003EB40057E1C38B201F095
:101E8000ABFC009030B201F0A7FC83465A3738B261
:101E900001F0A2FC07465A3630B201F09DFC024622
:101EA0000098C5F10A0101FB00F30BFB05337943F0
:101EB00002FB051193FBF8F691FBF8FB1398B0F9C0
:101EC0000080C8F10000604340F30F231398A9EB92
:101ED00008016143B0F902E041F30F22CEF10000A6
:101EE00060430BFB03F7079940F30F2006FB03FC4D
:101EF000A1EB0E01614341F30F2906FB1071CDE9FF
:101F000002C70BFB00C30BFB02F706FB107406FBBA
:101F100002FC0BFB00C0CDE900C708EBE43425B29E
:101F20000EEBE030039F04B206FB1970DDF808C029
:101F3000019F0BFB09C206FB1976DDF800C008EB18
:101F4000E1310EEBE33308EBE0300EEBE23208EB6D
:101F5000E6360BFB09CC09B21BB200B212B236B2A4
:101F600000E006E00EEBEC373FB2884211DA84461F
:101F700010E00020AAF80000AAF80200A9F1010070
:101F8000AAF804000798401EAAF8060009B0BDE8A8
:101F9000F08F8C46AE4201DAB04600E0A846C44558
:101FA00005DA884201DA844606E08C4604E0AE4257
:101FB00001DAB44600E0AC46AAF800C0884201DD70
:101FC000844600E08C46AE4201DDB04600E0A84603
:101FD000C44503DD884206DC084604E0AE4201DD6C
:101FE000304600E02846AAF804009A4201DA10467A
:101FF00000E01846A74201DA394600E0214688424F
:1020000005DA9A4201DA104606E0184604E0A742D3
:1020100001DA384600E02046AAF802009A4201DDC3
:10202000104600E01846A74201DD394600E021468F
:10203000884203DD9A4206DC1A4604E0A74201DD2D
:102040003A4600E02246AAF806209FE72DE9FC5F09
:102050000446D0F800B0B0F90800D4E90B53091ACF
:10206000B4F90A00121AE089B0F5807F39D0A0894E
:10207000B0B3E08FA76B00FB01F600FB02F1626BCF
:1020800007FB06F002FB110005EBE039724307FB8A
:10209000012003EBE03080460612B4F904004FEA59
:1020A0002927B84243DD002F41DBB4F90610B142C5
:1020B0003DDD002E3BDB94F83C104A073AD500FB8F
:1020C00006708A074FEA800504F118034FF0040AEE
:1020D0000BEB050119D45246184600F0EFFD1DE048
:1020E0000DE0A06B666B00FB01F706FB12774E4319
:1020F00000FB026005EBE71903EBE010CBE7E68F8E
:1021000001FB065906FB0230C5E70322184600F022
:10211000D5FD281D584410F8010C207794F83C0098
:10212000C0071AD01748A1690068814215D1002064
:10213000BDE8FC9F32B204F120002369CDE9000222
:10214000002539B2AA468B4609F000FFA061DDE9FF
:102150000002594609F094FEDFE7607D78B1A4F8EB
:102160004090A4F84280A4F84470A4F84660A564A6
:1021700084F84CA02046BDE8FC5F00F005B80120C3
:10218000D6E70000942D01082DE9F04F044690F8A1
:102190004010D0F8009090F8420087B04FF0FF3622
:1021A000702907DAB4F944203546012A00D5002504
:1021B00080310DE0902916DDB4F94420B4F90430E3
:1021C0000125521C9A4200DB0025A1F27F114942F1
:1021D000C9B28846702809DAB4F94610012900D539
:1021E0000026803010E00025FF21F2E790280DDD69
:1021F000B4F94610B4F906200126491C914200DBCF
:102200000026A0F27F104042C7B201E00026FF275F
:10221000A0690090207F05900020834682460490AC
:1022200094F83C00400744D594F84C10A06C11FB86
:1022300005014944042201A800F04CFDA08894F84F
:102240004C1010FB01F0A16C042206FB0011494464
:1022500002A800F03FFDA18894F84C0011FB00F1AA
:10226000A26C06FB012210FB05901118042203A8A2
:1022700000F030FD94F83C00800761D594F84C00E4
:10228000A26C10FB052300EB09010B4413F8013C81
:102290000493A38813FB00F306FB0322114411F8F7
:1022A00001BC10FB0500111801EB090010F8010C2E
:1022B00045E0B4F84400B4F94620284401B204F1E2
:1022C00020008146236909F041FE0190B4F84600E0
:1022D000B4F94410304402B254F8103F484609F0B3
:1022E00035FE0290E08E2368304402B2A08E28446E
:1022F00001B2484609F02AFE039094F82C00103CE5
:1023000080071DD5B4F9462034F8440F284401B2A3
:10231000484609F0B5FD04906088B4F900103044D7
:1023200002B2484609F0ACFD83466088304402B2F0
:1023300034F84409284401B2484609F0A1FD824618
:1023400094F83C0042464546800735D5059810FB79
:1023500008F30499C8F1FF0011FB0031C1F3072114
:102360001BFB08F61AFB0060C0F3072011FB07F304
:10237000C7F1FF0610FB06331B0A2377022907D893
:10238000022803D8002007B0BDE8F08F002702E044
:10239000022800D8FF270598022800D800220498B8
:1023A000022800D8FF22BBF1020F00D80025BAF1A5
:1023B000020F03D8FF2501E0FF202077CAB1FF2AD2
:1023C00019D0DDE9000107F0FAFE0646ADB1FF2D98
:1023D00015D0DDE902012A4607F0F1FE014687B17A
:1023E000FF2F10D03A46304607F0E9FEA0610120E9
:1023F000C9E7019EEAE7009EE8E70399EFE7029943
:10240000EDE7A161F3E7A661F1E700002DE9F047F0
:102410000446B0F908000A270002E062B4F90A0095
:1024200000022063B4F90C1091FBF7F5684200EB51
:10243000800001EB4006684205F1010800B201F09E
:10244000CBF98246E84300B201F0C6F98146C5F1F6
:102450005A0000B201F0C0F90546C8F15A0000B2B6
:1024600001F0BAF9C6F10A0101FB0AF3024609FBC1
:10247000063090FBF7F06943606302FB061090FBA7
:10248000F7F0A063207D09F06FFE94F83C1060F334
:10249000000184F83C10207D09F056FE94F83C10B1
:1024A00060F3410184F83C10207D042822D00528E7
:1024B00020D006281ED021F0040100BF84F83C1073
:1024C0002168A162216A21F0E00160F30401A08883
:1024D00060F39421E08860F35F512162E0894FF45A
:1024E0008031B1FBF0F0E087FF2020772069A06108
:1024F000BDE8F08741F00401E0E700002DE9F04776
:10250000424E8146328822B14148424F0568002040
:102510000DE00020BDE8F08700EB800305EBC3036E
:102520005C6ABC4201DD641E5C62401C80B2904269
:10253000F2D30024884618E004EB840005EBC007C2
:1025400078680AF0D7F910B1012807D00BE0796854
:10255000494508D1B96841450ED004E0494678683C
:10256000FDF780FE40B1641CA4B230888442E3D3FE
:102570002C46012032881AE004EB840005EBC004ED
:10258000A169606A08444FF47A716062884200DD94
:102590006162002CECD036E000EB800105EBC1015C
:1025A000666A4B6AB34200DA0C46401C80B2904225
:1025B000F2D3606810B120460AF01AF80DF018FF47
:1025C00006460025424649462046A5610AF066F8BF
:1025D00018B16562A06978B115E020460AF008F8E4
:1025E0002421204600F0B4FB2821204600F0B0FB57
:1025F0004FF0004060628CE730460DF0F3FEA061C2
:1026000008B90120A061204684E7000034000020C2
:10261000940000200100008010B510210C4800F04B
:10262000CFF809F0F7FF40B10A4901600A4941605B
:102630000A4981600A49C16010BD07F059FE0028AF
:10264000FAD10022134607A007F056FEFEE700006D
:10265000F8020020A9C100085DC4000891C5000867
:1026600083C100084F7574206F66206D656D6F72B1
:1026700079000000002108460AF064B97FB50E46D3
:10268000040003D107F01CFF040020D00025E6B1B0
:10269000ADF80050ADF8025007F024FF401EADF831
:1026A0000400204607F076FF401EADF806006A469B
:1026B000314602A8FFF7D8F8002808D0226912B1E5
:1026C00002A92046904700260DE0C0F860517FBD6A
:1026D00004EBC601002202A84031FFF7EDF8002804
:1026E000F5D1761CB6B2B4F86001C0F30900B0426F
:1026F000EED8B4F86001C0F30900202804D204EB3E
:10270000C00002A9403004E004F140006946C4F86A
:10271000605107F05DFCB4F860010321C0F30900CB
:10272000401CC4F86001606A0DF0B6FD7FBD70B555
:102730000C461E461546114600F0F2F8AEB10022D6
:10274000294620460EF0F6FA2946204662680EF029
:10275000EBFA616819B12A4620460EF0EBFA656083
:10276000A068002800D1A56070BD29462046A26857
:102770000EF0E0FA0022294620460EF0D5FAA168B4
:1027800019B12A4620460EF0CFFAA56060680028ED
:10279000EAD1656070BD002100B14168084670470C
:1027A000002802D00068091D40587047002801D059
:1027B000006840587047002100B1816808467047A2
:1027C00000224260C91C21F0030182600160704751
:1027D00070B50446006808300BF004F9050013D00A
:1027E0000146002220460EF0A5FA294620466268DE
:1027F0000EF09AFA616819B12A4620460EF09AFA4C
:102800006560A06800B9A560284670BD2DE9F0415B
:102810000D4607002BD055B3FFF7BDFFA84204D1EA
:102820003846FFF7D5FF04461EE0386808300BF045
:10283000D9F804001BD029463846FFF7B7FF0646F3
:102840000146224638460EF06FFA32462146384697
:102850000EF070FA2246294638460EF06BFA2A46E8
:10286000214638460EF060FA2046BDE8F08100208F
:10287000FBE770B50446006808300BF0B3F80500BC
:1028800013D00146002220460EF04EFA294620467B
:10289000A2680EF04FFAA16819B12A4620460EF040
:1028A00043FAA560606800B96560284670BD28B12C
:1028B000416809B9806808B100207047012070475D
:1028C0002DE9F04116460D460746B14226D01EB10D
:1028D0001146FFF76BFF01E0FFF76DFF0446A542CD
:1028E0001CD02946384600F01BF82A4621463846B7
:1028F0000EF01AFA2246294638460EF01BFA2A46EE
:10290000314638460EF016FA3246294638460EF061
:102910000BFA06B9BD60002C00D17D60BDE8F081E6
:1029200070B50A460446FFF736FF002390420AD1ED
:1029300011462046FFF734FF6060011E01D00022DF
:1029400024E0A36070BD2046FFF735FF904211469A
:1029500020460CD1FFF72AFFA060011E05D02046BB
:10296000BDE8704000220EF0DFB9636070BDFFF774
:102970001DFF064611462046FFF712FF0546024698
:10298000314620460EF0D0F9324629462046BDE8B1
:1029900070400EF0CFB9000070B500200D4905461B
:1029A00001EBC002401CC0B295710228F8D30A4E58
:1029B000002400BF56F8340038B10BF067F806EB7E
:1029C000C40046F8345085718580641CE4B2102C34
:1029D000F0D370BDBC0000201003002070B50028AB
:1029E0001DD0012110280AD82F4B002203EBC2046E
:1029F000A479E4070ED0521CD2B2022AF6D32B4C93
:102A00004FF0FF33002200BF04EBC205AE79F6079A
:102A100006D017E003EBC200817153F8320070BD9D
:102A2000AD8885420ED305D104EBC200817154F804
:102A3000320070BD002B04DB04EBC306B688B54240
:102A400000D253B2521CD2B2102ADDD3002B05DBC8
:102A500004EBC300817154F8330070BD5FF00005D2
:102A600004EBC5029279D20709D06D1CEDB2102D8E
:102A7000F6D3002213460EA007F03EFCFEE704EB5F
:102A8000C5029171908054F83520014610460BF034
:102A90002BF844F835000028DFD1002213461048F7
:102AA00007F02AFCFEE70000BC0000201003002015
:102AB0004E6F2066726565206275666665722E20AF
:102AC000496E637265617365204C565F445241578D
:102AD0005F4255465F4D41585F4E554D2E000000F8
:102AE000E06C010810B500210C4B0A4653F8314048
:102AF000844209D0491CC9B20229F7D3084B0021EE
:102B000053F83140844203D103EBC100827110BD00
:102B1000491CC9B21029F3D310BD0000BC0000202D
:102B200010030020002803D00449884201D100206E
:102B3000704750F8040C400870470000B4000020B3
:102B4000074906480022CA60486001684FF6FC72D7
:102B500021F0010162F35F01016070471004002061
:102B6000AC00002030B500F0030401F0030503467B
:102B7000A54243D14EE00C781C704C785C708C7888
:102B80009C70CC78DC700C791C714C795C718C7900
:102B90009C71CC79DC710C7A1C724C7A5C728C7AE8
:102BA0009C72CC7ADC720C7B1C734C7B5C738C7BD0
:102BB0009C73CC7BDC730C7C1C744C7C5C748C7CB8
:102BC0009C74CC7CDC740C7D1C754C7D5C758C7DA0
:102BD0009C75CC7DDC750C7E1C764C7E5C768C7E88
:102BE0009C76CC7EDC760C7F1C774C7F5C778C7F70
:102BF0009C77CC7FDC772031203A2033202ABAD84A
:102C000005E000BF11F8014B03F8014B521E002AEA
:102C1000F8D130BD4CB3C4F1040405E011F8015BF8
:102C2000521E03F8015B641EFCB1002AF6D11CE0C1
:102C300010C9203A10C310C910C351F8084B43F80B
:102C4000084B51F8044C43F8044C51F8104B43F82E
:102C5000104B51F80C4C43F80C4C51F8084C43F80D
:102C6000084C51F8044C43F8044C202AE0D802E008
:102C700010C9121F10C3042AFAD804E011F8014B3E
:102C800003F8014B521E002AF8D130BD10B503469F
:102C900005E000BF11F8014B03F8014B521E002A5A
:102CA000F8D110BD10B5034605E000BF11F8014B87
:102CB00003F8014B521E002AF8D110BD10B503468F
:102CC00005E000BF11F8014B03F8014B521E002A2A
:102CD000F8D110BD10B5034605E000BF11F8014B57
:102CE00003F8014B521E002AF8D110BD10F0030367
:102CF00009D0C3F1040303E0521E00F8011B5B1E60
:102D00000BB1002AF8D101EB012303EB014303EBE4
:102D100001630EE008C0203A08C040F8083B40F8C4
:102D2000043C40F8103B40F80C3C40F8083C40F8AC
:102D3000043C202AEED801E008C0121F042AFBD868
:102D400003E000BF00F8011B521E002AFAD17047B1
:102D500010F003034FF0000219D0C3F1040303E0A5
:102D6000491E00F8012B5B1E8BB10029F8D170477A
:102D700004C0203904C040F8082B40F8042C40F867
:102D8000102B40F80C2C40F8082C40F8042C20297B
:102D9000EED801E004C0091F0429FBD803E000BFFE
:102DA00000F8012B491E0029FAD1704710F00302E8
:102DB0004FF0FF030AD0C2F1040203E0491E00F8FD
:102DC000013B521E12B10029F8D170474FF0FF327B
:102DD0000EE004C0203904C040F8082B40F8042C51
:102DE00040F8102B40F80C2C40F8082C40F8042C2C
:102DF0002029EED801E004C0091F0429FBD802E015
:102E000000F8013B491E0029FAD170472DE9F8432B
:102E1000144689461646170A054619E049462846CB
:102E20000BF056FD8046494628460BF001FD06EBA7
:102E3000002084B26A462146404600F00DFA01287F
:102E400012D0380606D5B9F1000F0FD04FF00009A7
:102E5000002DE3D124F4FE40074929280AD02A286E
:102E600008D08868BDE8F8830098FBE728460BF097
:102E70009DFCD1E74868F5E7802D01082DE9F8436E
:102E8000144689461646170A054619E0494628465B
:102E90000BF01EFD8046494628460BF0C9FC06EBA8
:102EA000002084B26A462146404600F00CFA012810
:102EB00012D0380606D5B9F1000F11D04FF0000935
:102EC000002DE3D124F4FE40222819D00CDC032885
:102ED00012D007280CD115E0BDF90000BDE8F88339
:102EE00028460BF063FCCFE7312803D0C02805D07B
:102EF0000020F3E70F20F1E70520EFE70C20EDE7D6
:102F0000FF20EBE74FF48070E8E72DE9F843144623
:102F100089461646170A054619E0494628460BF029
:102F2000D7FC8046494628460BF082FC06EB002081
:102F300084B26A462146404600F0FFF9012815D0C8
:102F4000380606D5B9F1000F13D04FF00009002D57
:102F5000E3D124F4FE402C280FD06D280DD0AD38DD
:102F6000B0F5004F09D0FF20BDE8F8839DF80000C0
:102F7000FAE728460BF01AFCCDE70020F4E7000042
:102F80002DE9F843144689461646170A054619E006
:102F9000494628460BF09CFC8046494628460BF0E3
:102FA00047FC06EB002084B26A462146404600F00A
:102FB000FEF9012815D0380606D5B9F1000F12D058
:102FC0004FF00009002DE3D124F4FE407E280ED0FE
:102FD000BE280FD08E38B0F5004F08D00020BDE8D5
:102FE000F8830098FBE728460BF0E0FBCEE70DF0F6
:102FF00093F9F4E70048F2E7B86B0108014840682C
:103000007047000024000020704730B50402002003
:10301000831803FB03F5A54200D818465208F7D1E0
:10302000020900070A80000E488030BD2DE9F041FA
:103030008846050016464FF0FF3706D0286820B1B5
:10304000284605F0A3FF040002D53846BDE8F0810C
:103050002968A01C014404223046FFF723FE2146C4
:10306000284605F0CFFF00EA182000F07F00EDE7CA
:103070002DE9F0418846050016464FF0FF3706D08F
:10308000286820B1284605F081FF040002D53846A3
:10309000BDE8F0812968A01C014402223046FFF7F8
:1030A00001FE2146284605F0ADFF00EA182000F099
:1030B0007F00EDE770B50546006800280DD00024BC
:1030C00003E000BF05F054FF04442146284605F004
:1030D0009EFFFF28F6D1A41CA0B270BD2DE9F041DF
:1030E0008846050016464FF0FF3706D0286820B105
:1030F000284605F04BFF040002D53846BDE8F081B4
:103100002968A01C014401223046FFF7CBFD21466F
:10311000284605F077FF00EA182000F07F00EDE771
:103120002DE9F0418846050016464FF0FF3706D0DE
:10313000286820B1284605F029FF040002D538464A
:10314000BDE8F0812968A01C014404223046FFF745
:10315000A9FD2146284605F055FF00EA182000F099
:103160007F00EDE770B50E46050033D000F05CF946
:103170002879A0B18100091D28680AF0B5FC044631
:1031800007F0B6F878B1002C24D0687900218207C6
:1031900000D50121C00700D0491C287912E0042085
:1031A0000AF020FCEBE7224600230BA007F0A4F86E
:1031B000FEE700BF04EB800252F8042C44F8202004
:1031C000401EC0B28842F5D844F821602879401CDE
:1031D00028712C6070BD00004F7574206F66206DE3
:1031E000656D6F727900000070B505464079800703
:1031F00004D52846BDE8704000F00EB904200AF05E
:10320000F1FB044607F074F8A8B1D4B120460CF0E5
:1032100076FD21462846FFF7A5FF687940F00200B9
:103220006871C00705D02868D0E9001202602868DC
:103230004160204670BD2246002303A007F05CF8E1
:10324000FEE7002070BD00004F7574206F66206D92
:10325000656D6F72790000002DE9F84317468946C5
:1032600006002ED03068002829D000204FEA192807
:103270004FF0FF34054600901BE0E9B230460CF0F9
:10328000A6FD6A464946FFF7D1FE404502D10098A7
:10329000386013E071798A0704D5002802DB0DB984
:1032A0004907F4D5A04202DD0446009838606D1C41
:1032B0002DB23079A842E0DC002C02DB0120BDE811
:1032C000F8830020FBE72DE9F843174689460600FE
:1032D00031D0306800282CD000204FEA19284FF058
:1032E000FF34ADF8000005461DE0E9B230460CF0B1
:1032F0006EFD6A464946FFF7BBFE404503D1BDF867
:103300000000388014E071798A0704D5002802DBB8
:103310000DB94907F3D5A04203DD0446BDF800000E
:1033200038806D1C2DB23079A842DEDC002C02DB27
:103330000120BDE8F8830020FBE72DE9F84317469C
:103340008946060031D0306800282CD000204FEA92
:1033500019284FF0FF348DF8000005461DE0E9B252
:1033600030460CF034FD6A464946FFF7B7FE40454B
:1033700003D19DF80000387014E071798A0704D5F4
:10338000002802DB0DB94907F3D5A04203DD04464E
:103390009DF8000038706D1C2DB23079A842DEDC3B
:1033A000002C02DB0120BDE8F8830020FBE72DE9BB
:1033B000F8431746894606002CD03068002827D0ED
:1033C0004FEA19284FF0FF3400251BE0E9B23046E0
:1033D0000CF0FDFC6A464946FFF7A2FE404502D1CB
:1033E0000098386013E071798A0704D5002802DB61
:1033F0000DB94907F4D5A04202DD044600983860B3
:103400006D1C2DB23079A842E0DC002C02DB0120DB
:10341000BDE8F8830020FBE74179890701D400204B
:10342000704700680068704770B50E460179044621
:1034300000291BD0002017E0226852F82020B24259
:1034400010D10025012912D08900091F20680AF037
:103450004BFB054606F04CFF98B1002D06D000202E
:1034600001461FE0401CC0B28142E5D870BD206813
:103470000AF00CFB25602571607920F00100607175
:1034800070BD2A4600230BA006F036FFFEE7226837
:1034900052F82020B24203D045F82120491CC9B27D
:1034A000401CC0B222798242F1D8D0B2401E2071B5
:1034B000256070BD4F7574206F66206D656D6F72ED
:1034C0007900000070B5040025D06079C00709D0EC
:1034D00020460CF070FC050004D00CF0B8FC284627
:1034E0000AF0D4FA6079800709D52046FFF794FFE7
:1034F000050004D00CF0ABFC28460AF0C7FA20798E
:1035000010B120680AF0C2FA0020206020716079B2
:1035100020F00700607170BD37B582B00446BDF879
:103520000C1005F033FD050011D40146204605F0CE
:1035300069FDBDF80C1000F07F00C1F30621884240
:1035400005D1AD1C20680422284404A926E0FF20F0
:10355000ADF800002046FFF7ADFD00B90220801D48
:1035600085B2294620460EF00BF9206806F0C0FE11
:10357000C0B1002C14D020680222284403A90838C6
:10358000FFF790FB20680422284404A9801FFFF75E
:1035900089FB2068022228446946801EFFF782FBCF
:1035A00005B030BD002302A0226806F0A5FEFEE7AC
:1035B0004F7574206F66206D656D6F727900000025
:1035C00037B582B00446BDF80C1005F0DFFC0500ED
:1035D00011D40146204605F015FDBDF80C1000F091
:1035E0007F00C1F30621884205D1AD1C206802226C
:1035F000284404A926E0FF20ADF800002046FFF78C
:1036000059FD00B90220001D85B2294620460EF062
:10361000B7F8206806F06CFEC0B1002C14D020680A
:103620000222284403A9801FFFF73CFB20680222E6
:10363000284404A9001FFFF735FB20680222284414
:103640006946801EFFF72EFB05B030BD002302A0A7
:10365000226806F051FEFEE74F7574206F66206DFC
:10366000656D6F727900000037B582B00446BDF811
:103670000C1005F08BFC050011D40146204605F026
:10368000C1FCBDF80C1000F07F00C1F30621884298
:1036900005D1AD1C20680122284404A926E0FF20A2
:1036A000ADF800002046FFF705FD00B90220C01C60
:1036B00085B2294620460EF063F8206806F018FE11
:1036C000C0B1002C14D020680222284403A9401F56
:1036D000FFF7E8FA20680122284404A9C01EFFF77A
:1036E000E1FA2068022228446946801EFFF7DAFAD0
:1036F00005B030BD002302A0226806F0FDFDFEE704
:103700004F7574206F66206D656D6F7279000000D3
:1037100037B582B00446BDF80C1005F037FC050043
:1037200011D40146204605F06DFCBDF80C1000F0E8
:103730007F00C1F30621884205D1AD1C2068042218
:10374000284404A926E0FF20ADF800002046FFF73A
:10375000B1FC00B90220801D85B2294620460EF03A
:103760000FF8206806F0C4FDC0B1002C14D020680A
:103770000222284403A90838FFF794FA206804229B
:10378000284404A9801FFFF78DFA206802222844EC
:103790006946801EFFF786FA05B030BD002302A0FF
:1037A000226806F0A9FDFEE74F7574206F66206D54
:1037B000656D6F727900000010B518210448FEF79E
:1037C000FFFF0448002101710121017010BD0000BC
:1037D000A4020020CC0000204FF4B47190FBF1F261
:1037E00001FB1200002802DA00F5B47000B20E49A5
:1037F0005A2802DA31F910007047A0F15A025A2A09
:1038000003D2C0F1B40000B2F4E7A0F1B4025A2A26
:1038100001D210B202E0C0F5B47000B231F810006D
:10382000404200B270470000DE6B01082DE9F0470E
:1038300088B01D46109E92468946040007D0B9F113
:10384000000F04D016F0120F10D0002004E000206A
:1038500008B0BDE8F087401C215C0A2904D00D297E
:1038600002D00029F7D1F3E7401CF1E7B00701D5FA
:1038700047F618454FF000088DF81480204FCDF81A
:10388000108021E00498CDF8188028B3002105AB02
:1038900006AACDE90231CDE9006220442B4652460A
:1038A00049460CF0B9FD0699691A0DB2B0B10499F8
:1038B0000844049021780A290BD00D2909D0205CF6
:1038C0000A2812D00D2810D00498205C08B1002DD1
:1038D000D8DC049868B110E00121D8E7049860B9F9
:1038E0007A6804A920469047F3E70498401C0490A6
:1038F000EFE77A6804A9204690470498A8E70000FB
:10390000E40000202DE9FF4F83B004464FF0000093
:10391000DDF848A0DDF84090208093460F006080DD
:1039200047D0BBF1000F44D05FEA8A7002D547F65A
:10393000184011900025A846BBF8086023E07819CC
:10394000CDE900A05946119B069AFFF76FFF80440E
:10395000B4F9020006EB09010144B1F5004F28D289
:10396000304448446080A8EB0501CDF800A05A46D9
:10397000069B019800F022F8B4F90010814200DBA8
:10398000084620804546785D0028D8D15DB1781979
:1039900010F8010C0A2801D00D2804D1618806EB2B
:1039A000090008446080B4F9020028B1A0EB0900C6
:1039B000608007B0BDE8F08F6680FAE72DE9FC5F14
:1039C0001E46DDF830A091460D46070009D0B9F13A
:1039D000000F06D00020044600908DF804002DBB97
:1039E0002BE00020BDE8FC9FDFF854806946384694
:1039F000D8F80420904783460098D8F8042038442B
:103A00000021904780465FEACA7004D0594601A859
:103A100000F018F850B942465946484608F072F985
:103A200000B2002802DD2044304404B20098A842CD
:103A3000DAD3002C01DDA01B04B22046D2E700003F
:103A4000E400002000230278232902D0012A0DD0AF
:103A50000FE02AB10021012A04D0022A04D008E094
:103A6000012101E0017004E0017001E0202902D091
:103A70000123184670470221F6E700002DE9F047C0
:103A80001E4614460D468246DDF8209015E000BF24
:103A90004FEA540808FB0657394650464A469047B5
:103AA000002808DD44F30000C0EB540407EB0605D2
:103AB000A4F1010401E005DA4446002CE8D12046D7
:103AC000BDE8F0873846FBE710B5074C01202070B1
:103AD0000648FEF760FE28B10421A068BDE810404A
:103AE0000CF0DABB0021F8E788000020E00200209B
:103AF00010B5044690F83C00E16A90B0C20707D1C7
:103B0000A28E3AB1A2F57F43FF3B1AD0521EA28685
:103B1000A28EB2B909B1C20713D04022214668462D
:103B2000FFF720F821461448FEF7FAFE204609F078
:103B3000ADFFFFF7C9FF0398C8B101466846884743
:103B400015E0226B5242626289B1C20702D1A26AB9
:103B500052426262421C62F3000084F83C00D4E9E5
:103B60000632C007C4E9062300D1A16B21620348D5
:103B7000007810B010BD0000E00200208800002096
:103B800070B52948FEF707FE06E0C86B20F002007A
:103B9000C8632548FEF704FE0100F6D1234D68688E
:103BA0000CF020FC064631E000202870E06B810715
:103BB00030D440F00200E063606A8119002805DC1F
:103BC000002903DBA16809B120468847606A801993
:103BD000606219D4216A884200DD6162226921464F
:103BE00004F110000AB1904701E006F085F962681F
:103BF0001AB1236801B218469047D4E908018142FE
:103C000002DB2046FFF774FF287818B10648FEF75C
:103C1000C2FD03E021460448FEF7C2FD0400C3D103
:103C20000CF0E6FB686070BDE00200208800002018
:103C30002DE9F041334C60681C300DF097FD324D9A
:103C4000606800216A681C300CF032F9002006F030
:103C50003DFC00EBC00101EB00104FF4A077A02663
:103C60005030B8420ADB002006F030FC00EBC00107
:103C700001EB0010503090FBF6F000E0012002B2A2
:103C8000606800211C300CF01DF9606801220021E1
:103C90001C300CF012F9606820300DF067FD287FB1
:103CA000800701D5194800E0194806F025FA0246B8
:103CB0006068002120300CF0FBF8002006F006FCC4
:103CC00000EBC00101EB00105030B8420ADB0020CD
:103CD00006F0FCFB00EBC00101EB0010503090FB44
:103CE000F6F000E0012002B26068002120300CF004
:103CF000E9F86068BDE8F0410122002120300CF0B5
:103D0000DCB800000001002030040120D9D7D40025
:103D10004D4945002DE9F041444C606824300DF0D8
:103D200025FD606847F6FF773A46002124300CF005
:103D3000FBF86068FF22002124300CF095F83C4D20
:103D4000287F800701D53B4800E03B4806F0D4F9C6
:103D500002466068002124300CF081F8374E287F3D
:103D60007268800703D5364806F0C6F902466068D7
:103D7000002124300CF02BF9606800216A6824309F
:103D80000CF0A5F860680421AA6824300CF09FF8B4
:103D900060680022114624300CF09EF860687F2293
:103DA000022124300CF098F86068032200212430AE
:103DB0000CF09CF860689622002124300CF002F987
:103DC00060684C22002124300CF0F7F8606828303D
:103DD0000DF0CCFC6068FF22002128300CF044F884
:103DE00060683A46002128300CF09EF86068002197
:103DF0006A6828300CF033F840F6880006F083F942
:103E000002466068202128300CF029F8287FB2682B
:103E1000800703D50B4806F06FF902466068BDE8DD
:103E2000F041002128300CF0D2B800000001002041
:103E300030040120D9D7D4004D494500946C0108C5
:103E40004F4031004F4041002DE9F05FF84E70685F
:103E50000DF08CFCFF22002170680CF005F8F54F86
:103E6000387F800701D5F44800E0F44806F044F9B3
:103E70000246002170680BF0F2FF387FF04C80079B
:103E800001D5F04800E0204606F036F90246002150
:103E900070680CF071F8387F800701D5E94800E0C0
:103EA000204606F029F90246002170680CF08FF8D0
:103EB00000213A6970680CF065F800213A69706871
:103EC0000CF08AF87068001D0DF050FC002006F020
:103ED000FDFA502505EBC0004FF4A079A024484519
:103EE00007DB002006F0F2FA05EBC00090FBF4F0CF
:103EF00000E0012002B270680021001D0CF014F8EF
:103F00007068FF220021001D0BF0AEFF387F6FF0BC
:103F10007F4A800701D5504600E0CB4806F0ECF818
:103F2000024670680021001D0BF099FF387F800762
:103F300001D5C64800E0C64806F0DEF802467068C3
:103F40000021001D0BF095FF7068B84602217A68C9
:103F5000001D0BF08EFF70680421BA68001D0BF085
:103F600088FF002006F0B2FA05EB40004F46B84249
:103F700007DB002006F0AAFA05EB400090FBF4F006
:103F800000E0012002B270680021001D0BF080FFEC
:103F9000706801223321001DFFF712FB70680021B9
:103FA000D8F81020001D0BF0EDFF98F81C008007DA
:103FB00001D5A44800E0504606F09EF8024670681D
:103FC0000021001D0BF0D8FF70680021D8F81020E8
:103FD000001D0CF001F898F81C00800701D59948E5
:103FE00000E0504606F088F8024670680021001D87
:103FF0000BF0EDFF98F81C00800701D5914800E018
:10400000504606F079F8024670680021001D0BF05A
:1040100049FF98F81C00C146800701D5894800E097
:10402000504606F069F8024670680021B046001D4F
:104030000BF03EFF706801220021001D0BF042FFD3
:10404000002006F083FA01284FF000000DD806F09A
:104050003DFAC0EB00105030B84218DB002006F0EB
:1040600035FAC0EB001050300EE006F02FFAC0EB2E
:10407000001005EB4000B84209DB002006F026FAEC
:10408000C0EB001005EB400090FBF4F600E00126C9
:10409000002006F01BFA05EB4000B84207DB0020C9
:1040A00006F014FA05EB400090FBF4F000E001206C
:1040B000304402B2D8F804000021001D0BF025FFA7
:1040C000002006F043FA01284FF000000DD806F05A
:1040D000FDF9C0EB00105030B84218DB002006F0AC
:1040E000F5F9C0EB001050300EE006F0EFF9C0EB30
:1040F000001005EB4000B84209DB002006F0E6F9AD
:10410000C0EB001005EB400090FBF4F600E0012648
:10411000002006F0DBF905EB4000B84207DB002089
:1041200006F0D4F905EB400090FBF4F000E001202C
:10413000304402B2D8F804000021001D0BF0EAFE62
:10414000002006F003FA01284FF000000DD806F019
:10415000BDF9C0EB00105030B84218DB002006F06B
:10416000B5F9C0EB001050300EE006F0AFF9C0EB2F
:10417000001005EB4000B84209DB002006F0A6F96C
:10418000C0EB001005EB400090FBF4F600E00126C8
:10419000002006F09BF905EB4000B84207DB002049
:1041A00006F094F905EB400090FBF4F000E00120EC
:1041B000304402B2D8F804000021001D0BF0AFFE1D
:1041C000002006F0C3F901284FF000000DD806F0DA
:1041D0007DF9C0EB00105030B84218DB002006F02B
:1041E00075F9C0EB001050300EE006F06FF9C0EB2F
:1041F000001005EB4000B84209DB002006F066F92C
:10420000C0EB001005EB400090FBF4F600E0012647
:10421000002006F05BF905EB4000B8421ADB0020F5
:1042200006F054F905EB400090FBF4F013E00000B9
:104230000001002030040120F3EFEA005A4B440053
:10424000ECE9E700423E3B0073625800E3DDD60034
:10425000978A80000120304402B2D8F8040000217F
:104260004646001D0BF047FE002006F06FF90128BE
:104270004FF000000DD806F029F9C0EB00105030C7
:10428000B84218DB002006F021F9C0EB00105030D6
:104290000EE006F01BF9C0EB001005EB4000B84241
:1042A00009DB002006F012F9C0EB001005EB40001E
:1042B00090FBF4F000E0012002B270680021001DC4
:1042C0000BF01EFE706896220021001D0BF07AFE96
:1042D000706839220021001D0BF06FFE70680C30F1
:1042E0000DF044FA716801F10C00091D0BF0F2FCAD
:1042F00099F81C00C846800701D5FD4800E0FD483C
:1043000005F0FAFE0246706800210C300BF0A7FDA4
:1043100098F81C00800701D5F74800E0F74805F041
:10432000EBFE0246706800210C300BF0A2FD98F8FD
:104330001C00DFF8CCB3800701D5F24800E05846F6
:1043400005F0DAFE0246706800210C300BF014FE16
:1043500098F81C00800701D5EA4800E0584605F0AF
:10436000CBFE0246706800210C300BF030FE98F84E
:104370001C00800701D5E34800E0584605F0BCFE6C
:104380000246706800210C300BF08CFD98F81C0080
:10439000C146800701D5DB4800E0584605F0ACFE79
:1043A000024670680021B0460C300BF081FD706849
:1043B00008300DF0DBF999F81C004E46800701D556
:1043C000D14800E0D14805F097FE0246D8F8040035
:1043D000102108300BF043FDD8F80400B14601214C
:1043E000726808300BF03BFD3321706805F050FE19
:1043F0000246D8F80400112108300BF030FD307F60
:10440000800701D5504600E0C14805F075FE024620
:10441000D8F804002021464608300BF020FD7068D3
:104420000022012108300BF033FD3321C846D9F8B2
:10443000040005F02DFE02467068122108300BF0D2
:1044400018FD98F81C00DFF8CCB2800704D540F6C0
:10445000CC4005F058FE02E0584605F04DFE0246FD
:1044600070681021B14608300BF003FD98F81C006D
:104470004646800701D5A84800E0584605F03CFEB6
:104480000246D9F804000121C84608300BF0F1FCBF
:10449000307F800701D5A04800E0584605F02CFE8B
:1044A0000246D8F804001121C14608300BF0E1FCA7
:1044B000307FB046800701D5984800E0584605F0A7
:1044C0001BFE0246D9F8040020214E4608300BF0AE
:1044D000D0FC98F81C00800701D58F4800E05046BA
:1044E00005F00AFE02467068102108300BF044FD0A
:1044F000504605F001FE02467068012108300BF0BD
:104500003BFD504605F0F8FD024670681121083069
:104510000BF032FD98F81C0040F6AA2B800701D55D
:10452000584601E040F6991005F0EDFD024670682E
:10453000202108300BF020FD98F81C00800701D5E1
:10454000754800E0504605F0D7FD0246706810211E
:1045500008300BF0A7FC504605F0CEFD024670680F
:104560000121B14608300BF09DFC4646504605F04F
:10457000C3FD0246D9F80400112108300BF092FC6B
:10458000307FB046800701D5584601E040F69910CB
:1045900005F0B9FD0246D9F8040020214E46083046
:1045A0000BF080FC70682922002108300BF000FD20
:1045B000706810300DF0DAF8706847F6FF7200216D
:1045C00010300BF0B1FC7068FF22002110300BF0AE
:1045D0004BFC98F81C004646800701D5504600E089
:1045E0004B4805F089FD0246D9F804000021C84671
:1045F00010300BF034FC307F800705D5504605F0B5
:104600007BFD0146192204E0414805F075FD014695
:104610004C22706805F039FE0246D8F804001021DB
:1046200010300BF01CFCD8F80400B1460121726870
:1046300010300BF014FC4C21706805F029FD024687
:10464000D8F80400112110300BF009FC307F8007EE
:1046500001D5504600E02E4805F04EFD0246D8F840
:1046600004002021464610300BF0F9FB99F81C009D
:10467000C846800740F6880902D540F6CC4000E0E5
:10468000484605F040FD02467068212110300BF0CD
:10469000E6FB70680021D8F8042010300BF0E9FB2D
:1046A00070681021D8F8042010300BF0E2FB98F865
:1046B0001C00800703D5484605F025FD02E00F48A1
:1046C00005F01AFD02467068202110300BF0D1FB76
:1046D000002005F0FBFE05EB4000B94648451FDB16
:1046E000002005F0F3FE05EB400090FBF4F018E02D
:1046F000D9D7D4004D494500EDE7DF0040404000E8
:10470000ADA8A5004F403100EEEEEE00574F490036
:10471000736258006E655F00423E3B00E3DDD600E9
:10472000012002B27068002110300BF0B1FB7068FC
:104730000022012110300BF0A1FB98F81C00474625
:10474000800701D5F54800E0504605F0D5FC02464B
:104750007068002110300BF00FFC387F800701D506
:10476000EE4800E0504605F0C7FC02467068102194
:1047700010300BF001FCD046504605F0BDFC02465F
:104780007068012110300BF0F7FB404605F0B4FCD7
:1047900002467068112110300BF0EEFBDFF880A3A9
:1047A000504605F0A9FC02467068202110300BF03D
:1047B000E3FB387F800701D5D84800E0404605F08C
:1047C0009BFC02467068002110300BF06BFB387FB9
:1047D000800701D5D14800E0404605F08DFC024637
:1047E0007068102110300BF05DFB404605F084FC32
:1047F00002467068102110300BF054FB404605F063
:104800007BFC02467068112110300BF04BFB5046C8
:1048100005F072FC02467068202110300BF042FB5C
:10482000387F800701D5BD4800E0404605F064FCB4
:1048300002467068002110300BF0C9FB387F8007FA
:1048400001D5B64800E0404605F056FC02467068C7
:10485000102110300BF0BBFB404605F04DFC02462A
:104860007068012110300BF0B2FB404605F044FCAB
:1048700002467068112110300BF0A9FBB846504673
:1048800005F03AFC02467068202110300BF09FFBC7
:10489000002005F01BFE00EB800005EBC0004F463A
:1048A000B84209DB002005F011FE00EB800005EBAB
:1048B000C00090FBF4F000E0012002B2706800211B
:1048C00010300BF022FB002005F000FE00EB800012
:1048D00005EBC000B84209DB002005F0F7FD00EB56
:1048E000800005EBC00090FBF4F000E0012002B274
:1048F0007068002110300BF00DFB002005F0E6FD84
:10490000C0EB00105030B84208DB002005F0DEFD9F
:10491000C0EB0010503090FBF4F000E0012002B238
:104920007068002110300BF0FAFA002005F0CEFD7F
:10493000C0EB00105030B84208DB002005F0C6FD87
:10494000C0EB0010503090FBF4F000E0012002B208
:104950007068002110300BF0CEFA002005F0B6FD93
:1049600000EB800005EB8000B84209DB002005F079
:10497000ADFD00EB800005EB800090FBF4F000E063
:10498000012002B27068002110300BF0B9FA706893
:104990000322002110300BF0A9FA706800221146A2
:1049A00010300BF099FA70687F22022110300BF062
:1049B00093FA70680021D8F8042010300BF087FAC1
:1049C00070680421D8F8082010300BF080FA706865
:1049D0009622002110300BF0F5FA70683C22B521C8
:1049E0001030FEF7EDFD70682922002110300BF029
:1049F000DFFA70684C22002110300BF0DEFA70688C
:104A00009622002110300BF0CEFA7068002210219F
:104A100010300BF0C8FA706814300CF0A7FE0020BC
:104A200005F094FD32284FF000000FD805F04EFD40
:104A300000EB800005EB8000B84219DB002005F098
:104A400045FD00EB800005EB80000EE005F03EFD2B
:104A500000EB800005EBC000B84209DB002005F048
:104A600035FD00EB800005EBC00090FBF4F000E0AA
:104A7000012002B27068002114300BF041FA706816
:104A800018300CF073FE002005F060FD32284FF066
:104A900000000FD805F01AFD00EB800005EB400088
:104AA000B84219DB002005F011FD00EB800005EB9A
:104AB00040000EE005F00AFD00EB800005EB8000F1
:104AC000B84209DB002005F001FD00EB800005EB9A
:104AD000800090FBF4F000E0012004B270682246F0
:104AE000002118300BF011FA7068224600211830AE
:104AF0000BF010FA70682246002118300BF00FFA04
:104B000070682246002118300BF0F5F970682246D3
:104B1000BDE8F05F002118300BF0F2B94F403100D2
:104B20008888880030B5032B15D10423082A12D2B7
:104B3000DFE802F0110406080A0C0E1002220AE057
:104B4000042208E0062206E0092204E00B2202E02B
:104B50000D2200E00F22C1F3CF0401F00701C1F1E3
:104B60000801CD1A01219940491EC943035DA9409E
:104B70000B40AA401343035530BD00002DE9F05F00
:104B8000FE4C606830300CF0F1FD002005F0DEFCDA
:104B9000A026502501284FF4A0774FF000000DD833
:104BA00005F094FCC0EB00105030B84218DB002038
:104BB00005F08CFCC0EB001050300EE005F086FCD8
:104BC000C0EB001005EB4000B84209DB002005F007
:104BD0007DFCC0EB001005EB400090FBF6F000E020
:104BE000012002B26068002130300BF098F90020FB
:104BF00005F0ACFC01284FF000000DD805F066FC74
:104C0000C0EB00105030B84218DB002005F05EFC0D
:104C1000C0EB001050300EE005F058FCC0EB001067
:104C200005EB4000B84209DB002005F04FFCC0EB6B
:104C3000001005EB400090FBF6F000E0012002B20E
:104C40006068002130300BF060F9002005F07EFC38
:104C500001284FF000000DD805F038FCC0EB001023
:104C60005030B84218DB002005F030FCC0EB0010DB
:104C700050300EE005F02AFCC0EB001005EB4000C0
:104C8000B84209DB002005F021FCC0EB001005EB69
:104C9000400090FBF6F000E0012002B260680021C5
:104CA00030300BF037F9002005F050FC01284FF0B0
:104CB00000000DD805F00AFCC0EB00105030B842DF
:104CC00018DB002005F002FCC0EB001050300EE0B5
:104CD00005F0FCFBC0EB001005EB4000B84209DB1F
:104CE000002005F0F3FBC0EB001005EB400090FB4B
:104CF000F6F000E0012002B26068002130300BF0D5
:104D0000FAF8DFF88092DFF8788299F81C00D8F87A
:104D10002020800703D59C4805F0EEF90246606824
:104D2000102130300BF028F9606834300CF01EFD93
:104D300099F81C00DFF854B2800703D5584605F0F7
:104D4000DBF903E040F6EE6005F0DDF9024660684D
:104D5000002134300BF010F9002005F0F7FB01289A
:104D60004FF000000DD805F0B1FBC0EB0010503043
:104D7000B84218DB002005F0A9FBC0EB0010503052
:104D80000EE005F0A3FBC0EB001005EB4000B842BD
:104D900009DB002005F09AFBC0EB001005EB40009A
:104DA00090FBF6F000E0012002B260680021343090
:104DB0000BF0ABF8002005F0C9FB01284FF0000014
:104DC0000DD805F083FBC0EB00105030B84218DB63
:104DD000002005F07BFBC0EB001050300EE005F02A
:104DE00075FBC0EB001005EB4000B84209DB00206A
:104DF00005F06CFBC0EB001005EB400090FBF6F0FB
:104E000000E0012002B26068002134300BF082F82B
:104E1000002005F09BFB01284FF000000DD805F0A5
:104E200055FBC0EB00105030B84218DB002005F0F5
:104E30004DFBC0EB001050300EE005F047FBC0EB1F
:104E4000001005EB4000B84209DB002005F03EFBF6
:104E5000C0EB001005EB400090FBF6F000E00120F5
:104E600002B26068002134300BF045F860682C30E5
:104E70000CF07CFC002005F029FB05EB8000BA4615
:104E8000504507DB002005F021FB05EB800090FB7F
:104E9000F6F000E0012002B2606800212C300BF037
:104EA00043F899F81C00D8F824204F46800703D512
:104EB000584605F021F90246606801212C300BF0BC
:104EC0005BF8387F800701D5332200E066226068F6
:104ED00001212C300AF0C8FF6068332210212C30E9
:104EE0000AF0C2FF6068FF2202212C300AF0BCFFEA
:104EF00060680221D8F828202C300BF03DF860685B
:104F000002217A682C300AF0AAFF387FD8F82C20CA
:104F1000800703D51E4805F0EFF8024660680021BF
:104F20002C300AF09CFF606801217A682C300AF06E
:104F300096FF6068022201212C300AF0A9FF606808
:104F4000042201212C300AF09EFF606801217A685A
:104F50002C300AF08EFF002005F0B8FA00EB40007C
:104F600057465030B84215DB002005F0AFFA00EB91
:104F70004000503090FBF6F00DE0000000010020F2
:104F8000946C010830040120888888004F4031006B
:104F900066666600012002B2606800212C300AF0CB
:104FA000AFFF002005F0D2FA01284FF000000DD825
:104FB00005F08CFAC0EB00105030B84218DB00202E
:104FC00005F084FAC0EB001050300EE005F07EFAD8
:104FD000C0EB001005EB4000B84209DB002005F0F3
:104FE00075FAC0EB001005EB400090FBF6F000E016
:104FF000012002B2606800212C300AF086FF0020F8
:1050000005F0A4FA01284FF000000DD805F05EFA73
:10501000C0EB00105030B84218DB002005F056FA03
:10502000C0EB001050300EE005F050FAC0EB00105D
:1050300005EB4000B84209DB002005F047FAC0EB61
:10504000001005EB400090FBF6F000E0012002B2FA
:10505000606800212C300AF05DFF002005F076FA30
:1050600001284FF000000DD805F030FAC0EB001019
:105070005030B84218DB002005F028FAC0EB0010D1
:1050800050300EE005F022FAC0EB001005EB4000B6
:10509000B84209DB002005F019FAC0EB001005EB5F
:1050A000400090FBF6F000E0012002B26068BDE82D
:1050B000F05F00212C300AF01EBF00002DE9F04700
:1050C0006B4C606840300CF051FB6A4F387F8007B2
:1050D0001DD540F6AA2005F016F8024660680021AA
:1050E00040300AF049FF606844300CF03FFB00207C
:1050F00005F0ECF94FF4A078A026503040450ADBCB
:10510000002005F0E3F9503090FBF6F004E05A4837
:1051100004F0F2FFE1E7012002B2606800214430B0
:105120000AF0D0FE606800F14409002005F0CEF9D5
:1051300000EB8000502505EB4000404509DB0020D6
:1051400005F0C4F900EB800005EB400090FBF6F0A1
:1051500000E0012002B292214846FEF731FA606871
:1051600000F14409002005F0B1F900EB800005EBE7
:105170004000404509DB002005F0A8F900EB800065
:1051800005EB400090FBF6F000E0012002B2932115
:105190004846FEF715FA387F800701D5374800E00A
:1051A000374804F0A9FF02466068002144300AF045
:1051B0007FFE606848300CF0D9FA002005F086F9CF
:1051C00000EB400047465030B84208DB002005F0B5
:1051D0007DF900EB4000503090FBF6F000E001203C
:1051E00002B26068002148300AF06CFE002005F031
:1051F0006DF905EB8000B84207DB002005F066F989
:1052000005EB800090FBF6F000E0012002B2606840
:10521000002148300AF0ABFE002005F057F905EBFD
:105220004000B84207DB002005F050F905EB4000D4
:1052300090FBF6F000E0012002B2606800214830E7
:105240000AF05EFE002005F041F95030B84206DB5E
:10525000002005F03BF9503090FBF6F000E0012013
:1052600002B26068BDE8F047002148300AF05CBE39
:105270000001002030040120BDADA100E3DDD60017
:10528000978A80002DE9F041904C60684C300CF01A
:105290006DFA002005F01AF9502505EB8000AF00EB
:1052A000A026B84207DB002005F010F905EB8000CE
:1052B00090FBF6F000E0012002B2606800214C3063
:1052C0000AF032FE002005F001F900EB800005EB4A
:1052D0004000B846404509DB002005F0F7F800EB38
:1052E000800005EB400090FBF6F000E0012002B2E8
:1052F000606800214C300AF003FE754F60680021A1
:105300007A684C300AF0E3FD6068002211464C30A8
:105310000AF0E2FD60687F2202214C300AF0DCFDD9
:10532000002005F0D3F800EB40005030404508DB8A
:10533000002005F0CBF800EB4000503090FBF6F079
:1053400000E0012002B2606800214C300AF0CEFD7E
:10535000002005F0BBF800EB800005EB4000404565
:1053600009DB002005F0B2F800EB800005EB4000FF
:1053700090FBF6F000E0012002B2606800214C30A2
:105380000AF0AFFD6068962200214C300AF01AFE48
:1053900060684C2200214C300AF00FFE60685030EB
:1053A0000CF0E4F960680022022150300AF094FD0C
:1053B000002005F08BF805EB8000404507DB00205E
:1053C00005F084F805EB800090FBF6F000E001208A
:1053D00002B26068002150300AF0A6FD60683DA26C
:1053E0004FF4B7715030FEF793F93B4840F2691122
:1053F000826B60685030FEF78FF860680121FA68B0
:1054000050300AF0BFFD002005F060F800EB4000CE
:1054100045465030A84208DB002005F057F800EB65
:105420004000503090FBF6F000E0012002B26068CE
:10543000002150300AF069FD002005F047F800EB2C
:1054400040005030A84208DB002005F03FF800EB98
:105450004000503090FBF6F000E0012002B260689E
:10546000002150300AF056FD002005F02FF800EB27
:1054700040005030A84208DB002005F027F800EB80
:105480004000503090FBF6F000E0012002B260686E
:10549000002150300AF043FD002005F017F800EB22
:1054A00040005030A84208DB002005F00FF800EB68
:1054B0004000503090FBF6F000E0012002B260683E
:1054C000BDE8F041002150300AF015BD0001002078
:1054D00030040120EF808C00946C010830B4022A63
:1054E00002D8084630BC7047C1F30743C0F30744F5
:1054F0002344FF2B01D21C4601E04FF0FF0464F36C
:10550000174001D34FF0FF0363F30F20CBB2C4B2B7
:105510002344FF2B00D3FF2363F30700FF2AE1D0CE
:1055200030BC04F019BE30B4022A02D8084630BCA0
:105530007047C1F30743C0F307441B1B002B00DC7B
:10554000002363F31740C1F30723C0F307241B1B99
:10555000002B00DC002363F30F20CBB2C4B21B1B73
:10556000002B00DC002363F30700FF2ADFD030BCF0
:1055700004F0F2BD2DE9F0417D4C606838300CF04C
:10558000F5F8002004F0A2FFC0EB0010502707EB55
:1055900040004FF4A078A025404509DB002004F02E
:1055A00095FFC0EB001007EB400090FBF5F000E02A
:1055B000012002B26068002138300AF0C9FC60683E
:1055C000FF22002138300AF04FFC6A4E307F8007FE
:1055D00001D5694800E0694804F08EFD0246606824
:1055E000002138300AF03BFC002004F06FFF00EB94
:1055F000800007EB8000404509DB002004F066FFD7
:1056000000EB800007EB800090FBF5F000E001204C
:1056100002B26068002138300AF072FC606847F618
:10562000FF773A46002138300AF07EFC60683C3053
:105630000CF09CF860683A4600213C300AF074FC9B
:105640004F4F606800213A6B3C300AF008FC6068FC
:10565000FF2200213C300AF007FC60680222002192
:105660003C300AF015FC606800217A6B3C300AF08F
:1056700000FC6068022172683C300AF0FAFB606846
:105680000421B2683C300AF0F4FB002004F01EFF55
:1056900000EB800101EBC00046465030B0420ADB0F
:1056A000002004F013FF00EB800101EBC00050303C
:1056B00090FBF5F000E0012002B2606800213C3070
:1056C0000AF023FC002004F001FF00EB800101EB55
:1056D000C0005030B0420ADB002004F0F7FE00EBBF
:1056E000800101EBC000503090FBF5F000E001209C
:1056F00002B2606800213C300AF00CFC002004F08B
:10570000E5FE00EB800101EBC0005030B0420ADB47
:10571000002004F0DBFE00EB800101EBC000503004
:1057200090FBF5F000E0012002B2606800213C30FF
:105730000AF0F5FB002004F0C9FE00EB800101EB4C
:10574000C0005030B0420ADB002004F0BFFE00EB86
:10575000800101EBC000503090FBF5F000E001202B
:1057600002B26068BDE8F04100213C300AF0C3BBE2
:105770000001002030040120F3EFEA005A4B4400FE
:10578000946C010870B5314C606854300BF0EEFF3A
:10579000002004F09BFE00EB8000502505EB80000C
:1057A000B0F5A07F0ADB002004F090FE00EB800043
:1057B00005EB8000A02190FBF1F000E0012002B297
:1057C0006068002154300AF0E3FB60680122002188
:1057D00054300AF062FB606858300BF0C7FF606815
:1057E000FF22002158300AF03FFB194D606800216C
:1057F0006A6858300AF033FB40F6FF7004F083FC0F
:1058000002466068002158300AF0B6FB287F800706
:1058100001D5104800E0104804F06EFC02466068B4
:10582000102158300AF01BFB287F800701D50B4858
:1058300001E06FF07F4004F05FFC02466068BDE865
:105840007040102158300AF097BB00000001002082
:1058500030040120EEEEEE00574F4900423E3B007F
:105860002DE9FF4F81B00025DDF838A09B46174693
:1058700001465646BAF1030F00D104262548C160FF
:1058800080F800A00021C1708160417081703846AD
:10589000FDF7A4F881463846FDF7A0F80090394698
:1058A000484600F039F800240AE000BF19F8042047
:1058B000534629460298FFF735F9641C354424B253
:1058C000BC42F3DB012019E03946009800F024F8CF
:1058D00000240EE0009853462946025D19F80400A2
:1058E000424009F804200298FFF71CF9641C354473
:1058F00024B2BC42EEDB08F1010000B280465845FC
:10590000E2DB4846FDF7EEF8009805B0BDE8F04F41
:10591000FDF7E8B83800002070B50D4606460024B3
:1059200005E000BF0BF09EFB3055641C24B2AC4276
:10593000F8DB70BD2DE9F84317460D468046B1F9F6
:10594000026011E0B5F9004009E0386800900123D9
:10595000B1B2A0B21A46FBF73EFC641C3F1DB5F97C
:105960000400A042F1DA761CB5F90600B042E9DA8B
:105970004046BDE8F84304F09BBD00002DE9F74F19
:10598000917CA4B0144602297ED9014605A804F0F2
:1059900033FBB4F91800012823DD207FFD2820D334
:1059A0002088F0B1A07EBDF81410C0F3800211442D
:1059B000ADF81410BDF81610C0F340000844ADF85F
:1059C0001600A07EBDF81810C0F3C000081AADF88C
:1059D0001800A17EBDF81A0001F00101401AADF8CF
:1059E0001A00A77CFD2F00D9FF27FDF707FB04F065
:1059F00065FD1B9005A909A8259AFBF735FF00282E
:105A000042D01B98BDF8241000F1100A008A091A30
:105A1000ADF82410BDF82620BAF80200101AADF82F
:105A20002600BDF82820BAF80000121AADF8282088
:105A3000BDF82A30BAF80200181AADF82A00501A38
:105A4000401C00B20D90FCF7C9FF0390267BD4E9FF
:105A50000101884200D1002605F09CFC4FF0010BAB
:105A60000B9008B9022E01D14FF0000B4FF0FF3020
:105A70001A90BDF81800BDF81410401A401C0FFA17
:105A800080F8BDF81A0000E0A8E1BDF81610B4F9DE
:105A90000050401A401C00B24146804500DA0846DA
:105AA000B5EB600F00DD4510BBF1000F00D09DB1DC
:105AB000002D0ADD00232A4605A91CA805F054FF85
:105AC00000211CA805F02AFC1A90606813900020A1
:105AD0001190022E0ED023E0002EF6D1E07C0121A1
